:020000040800F2
:100000000028002005040008E5030008F7010008A7
:10001000E7030008E9030008EB0300080000000004
:100020000000000000000000000000004D04000877
:10003000ED030008000000007B010008490E0008E5
:100040004D0400084D0400084D0400084D0400084C
:100050004D0400084D0400084D0400084D0400083C
:100060004D0400084D0400084D0400084D0400082C
:100070004D0400084D0400084D0400084D0400081C
:100080004D0400084D0400084D0400084D0400080C
:100090004D0400084D0400084D0400084D040008FC
:1000A0004D040008F10300084D0400084D04000849
:1000B0004D0400084D040008000000004D04000835
:1000C0004D04000800000000000000004D0400087E
:1000D000000000004D0400084D040008000000006E
:1000E0004D0400084D0400084D0400080000000005
:1000F0000000000000000000000000000000000000
:0C01000000000000000000005FF808F1A3
:10010C0010B5054C237833B9044B13B10448AFF345
:10011C0000800123237010BD3C040020000000006F
:10012C009418000808B5034B1BB103490348AFF3FF
:10013C00008008BD00000000400400209418000856
:10014C00EFF3108072B6704780F310887047364A10
:10015C001368012B04D04FF001031360334A106075
:10016C00334A116033484FF0805101607047EFF310
:10017C00108272B62C48016891B14FF000010160F9
:10018C002A48016829B1EFF3098121E9F00F0068D1
:10019C000160274909680968B1E8F00F81F3098803
:1001AC0082F310884EF0040E7047214908601F49F5
:1001BC004FF0000008601C494FF0010008601E4819
:1001CC004FF47F01D0F8002041EA02010160194888
:1001DC004FF08051016019480068006800BF80F33F
:1001EC00088861B662B6704700BFEFF308801EF056
:1001FC00040F01D0EFF3098020E9F00F40F804ED73
:10020C001EF0040F02D080F3098801E080F3088807
:10021C0000B500F01BFE5DF804EB4EF0040E7047C9
:10022C00EFF3058070470000B0040020A804002004
:10023C00AC04002004ED00E020ED00E008ED00E04F
:10024C0082B00A4B9A6942F020029A619A6902F0D4
:10025C0020020092009A9A6942F004029A619B690A
:10026C0003F004030193019B02B07047001002409D
:10027C0008B50268034B9A4200D008BD00F0F4F8B0
:10028C00FBE700BF002C014072B6FEE700B591B051
:10029C002822002106A801F035FA002301930293CD
:1002AC00039304930593012206924FF48033079332
:1002BC000A9202220D920E934FF4E0130F9306A8AC
:1002CC0000F052F980B90F2301930221029100230F
:1002DC0003934FF480620492059301A800F076FB1F
:1002EC0020B911B05DF804FBFFF7CEFFFFF7CCFF90
:1002FC0008B500F0A7F8FFF7C9FFFFF7A1FFFEE76D
:10030C0082B00E4B9A6942F001029A619A6902F02E
:10031C0001020092009ADA6942F08052DA61DB69DC
:10032C0003F080530193019B054A536823F0E0636B
:10033C0043F00073536002B0704700BF00100240DE
:10034C000000014030B589B004461E4B9A6942F456
:10035C0000629A619B6903F400630193019B02A9FB
:10036C0003A800F0FFFB00F0EDFB03461648A0FBD2
:10037C0003239B0C013B1548154A026040F2E732FF
:10038C00C2604360002303618360836100F028FD39
:10039C00054610B1284609B030BD0C4800F002FCEF
:1003AC0005460028F6D1192000F0BAF80F2C01D917
:1003BC000125EFE700222146192000F079F8054BC2
:1003CC001C60E7E70010024083DE1B43580400204A
:1003DC00002C014008000020FEE7FEE7FEE7FEE7E8
:1003EC007047000008B5024800F010FC08BD00BFC3
:1003FC005804002070470000FFF7FCFF0B480C4925
:10040C000C4A002302E0D458C4500433C4188C4264
:10041C00F9D3094A094C002301E013600432A242CB
:10042C00FBD301F04BF9FFF763FF7047000000208E
:10043C003C040020541B00083C0400205C060020F7
:10044C00FEE7000008B5074A136843F01003136079
:10045C00032000F01BF80F20FFF774FFFFF750FF8D
:10046C00002008BD00200240034A1168034B1B7892
:10047C000B441360704700BFA00400200400002050
:10048C00014B1868704700BFA0040020074AD368CE
:10049C0023F4E0631B041B0C000200F4E060034334
:1004AC0043F0BF6343F40033D360704700ED00E0CA
:1004BC0000B5194BDB68C3F30223C3F1070CBCF185
:1004CC00040F28BF4FF0040C03F1040EBEF1060F0D
:1004DC0018D9033B4FF0FF3E0EFA0CFC21EA0C013D
:1004EC0099400EFA03F322EA0303194300280BDBAD
:1004FC000901C9B200F1604000F5614080F80013B9
:10050C005DF804FB0023E5E700F00F000901C9B218
:10051C00024B1954F4E700BF00ED00E014ED00E0CD
:10052C00002807DB00F01F02400901239340024A18
:10053C0042F82030704700BF00E100E082B0084B69
:10054C001B68084AA2FB03235B0A00FB03F301931D
:10055C0000BF019B5A1E0192002BF9D102B07047CB
:10056C0000000020D34D6210002800F0F18170B51E
:10057C0082B00446036813F0010F2CD0994B5B68D2
:10058C0003F00C03042B1DD0964B5B6803F00C039B
:10059C00082B12D06368B3F5803F41D0002B55D1A6
:1005AC0003F1804303F504331A6822F480321A6095
:1005BC001A6822F480221A6037E08A4B5B6813F4C5
:1005CC00803FE7D0874B1B6813F4003F03D0636870
:1005DC00002B00F0BF81236813F0020F75D0814B04
:1005EC005B6813F00C0F5FD07E4B5B6803F00C0361
:1005FC00082B54D02369002B00F08A807A4B0122FF
:10060C001A60FFF73DFF0546764B1B6813F0020F8F
:10061C0075D1FFF735FF401B0228F5D903209EE169
:10062C00704A136843F480331360636843B3FFF775
:10063C0027FF05466B4B1B6813F4003FCBD1FFF72C
:10064C001FFF401B6428F5D9032088E1B3F5A02FC8
:10065C0009D0644B1A6822F480321A601A6822F4AA
:10066C0080221A60E1E703F18043A3F53C331A685A
:10067C0042F480221A601A6842F480321A60D4E77D
:10068C00FFF7FEFE0546574B1B6813F4003FA2D044
:10069C00FFF7F6FE401B6428F5D903205FE1514BB0
:1006AC005B6813F4803FA5D14E4B1B6813F0020F0F
:1006BC0003D02369012B40F04F814A4A136823F081
:1006CC00F803616943EAC1031360236813F0080F50
:1006DC0033D0A369002B5CD0434B0122C3F8802498
:1006EC00FFF7CEFE05463F4B5B6A13F0020F21D19C
:1006FC00FFF7C6FE401B0228F5D903202FE1394A2B
:10070C00136823F0F803616943EAC1031360DCE763
:10071C00354B00221A60FFF7B3FE0546314B1B68C0
:10072C0013F0020FD1D0FFF7ABFE401B0228F5D916
:10073C00032014E10120FFF701FF236813F0040FDD
:10074C0000F09680274BDB6913F0805F34D1254B8A
:10075C00DA6942F08052DA61DB6903F0805301936D
:10076C00019B0125214B1B6813F4807F26D0E36885
:10077C00012B3DD0002B53D103F1804303F50433FF
:10078C001A6A22F001021A621A6A22F004021A6230
:10079C0033E0154B0022C3F88024FFF771FE0546A9
:1007AC00104B5B6A13F0020FC7D0FFF769FE401BBA
:1007BC000228F5D90320D2E00025D3E70B4A1368B1
:1007CC0043F480731360FFF75BFE0646074B1B6810
:1007DC0013F4807FCBD1FFF753FE801B6428F5D92F
:1007EC000320BCE0001002400000424200700040B8
:1007FC005F4A136A43F001031362E36833B3FFF7F4
:10080C003FFE06465A4B1B6A13F0020F2FD1FFF71F
:10081C0037FE801B41F288339842F3D903209EE0C7
:10082C00052B09D0524B1A6A22F001021A621A6A7D
:10083C0022F004021A62E0E74D4B1A6A42F00402FD
:10084C001A621A6A42F001021A62D6E7FFF718FE22
:10085C000646474B1B6A13F0020F08D0FFF710FE39
:10086C00801B41F288339842F3D9032077E0E5B935
:10087C00E369002B72D03E4A526802F00C02082A3F
:10088C0056D0022B17D03B4B00221A66FFF7F8FD0F
:10089C000446374B1B6813F0007F47D0FFF7F0FD81
:1008AC00001B0228F5D9032059E0314AD36923F003
:1008BC008053D361DCE72F4B00221A66FFF7E0FD73
:1008CC0005462B4B1B6813F0007F06D0FFF7D8FDB5
:1008DC00401B0228F5D9032041E0236AB3F5803F81
:1008EC001AD023494B6823F47413226A606A0243BA
:1008FC0013434B601F4B01221A66FFF7C1FD0446E0
:10090C001B4B1B6813F0007F0ED1FFF7B9FD001BCA
:10091C000228F5D9032022E0154A536823F400334A
:10092C00A1680B435360DCE7002018E0002016E0C0
:10093C00012B16D00E4B5B6803F48031226A914276
:10094C0011D103F47013626A93420ED1002006E0B9
:10095C0001207047012002E0012000E0002002B0DD
:10096C0070BD0120FBE70120F9E70120F7E700BF8C
:10097C0000100240000042420F4B5B6803F00C0277
:10098C00082A01D00D487047C3F383420C49885C98
:10099C0013F4803F0BD0084B5B68C3F34043094A08
:1009AC00D35C064A02FB00F0B0FBF3F07047064B39
:1009BC0003FB00F0704700BF0010024000127A00E9
:1009CC00C4180008D418000800093D00002800F0E5
:1009DC00A08070B50D460446524B1B6803F007030C
:1009EC008B420BD24F4A136823F007030B4313605F
:1009FC00136803F007038B4240F08D80236813F0DB
:100A0C00020F17D013F0040F04D0474A536843F475
:100A1C00E0635360236813F0080F04D0424A536814
:100A2C0043F460535360404A536823F0F003A168C9
:100A3C000B435360236813F0010F31D06368012B13
:100A4C0020D0022B25D0384A126812F0020F64D045
:100A5C0035494A6822F0030213434B60FFF710FD3F
:100A6C000646314B5B6803F00C036268B3EB820FF4
:100A7C0016D0FFF705FD801B41F288339842F0D960
:100A8C00032045E0284A126812F4003FE0D101200F
:100A9C003EE0254A126812F0007FD9D1012037E0E0
:100AAC00204B1B6803F00703AB420AD91D4A13689D
:100ABC0023F007032B431360136803F00703AB42C7
:100ACC002DD1236813F0040F06D0174A536823F472
:100ADC00E063E1680B435360236813F0080F07D001
:100AEC00114A536823F46053216943EAC1035360EC
:100AFC00FFF742FF0C4B5B68C3F303130B4AD35C49
:100B0C00D8400B4B18600B4B1868FFF71BFC0020F0
:100B1C0070BD012070470120FAE70120F8E70120A1
:100B2C00F6E700BF0020024000100240AC1800089D
:100B3C000000002008000020014B1868704700BF1F
:100B4C000000002008B5FFF7F7FF044B5B68C3F308
:100B5C00C223034AD35CD84008BD00BF001002403A
:100B6C00BC1800080F2303600B4B5A6802F00302F9
:100B7C0042605A6802F0F00282605A6802F4E06245
:100B8C00C2605B68DB0803F4E0630361034B1B6822
:100B9C0003F007030B607047001002400020024076
:100BAC007047000090F83D30DBB2012B23D10223BB
:100BBC0080F83D300268D36843F00103D3600368CA
:100BCC000F4A93420CD0B3F1804F09D0A2F5943266
:100BDC00934205D01A6842F001021A600020704757
:100BEC009A6802F00702062A07D01A6842F001023E
:100BFC001A6000207047012070470020704700BF2A
:100C0C00002C0140704770477047704770B5044620
:100C1C000368DE681D6915F0020F10D016F0020F84
:100C2C000DD06FF002021A610123037703689B69F0
:100C3C0013F0030F5ED0FFF7E6FF0023237715F0C8
:100C4C00040F12D016F0040F0FD023686FF00402BB
:100C5C001A610223237723689B6913F4407F4FD0DA
:100C6C002046FFF7D0FF0023237715F0080F12D092
:100C7C0016F0080F0FD023686FF008021A610423D6
:100C8C0023772368DB6913F0030F40D02046FFF76E
:100C9C00BAFF0023237715F0100F12D016F0100FA7
:100CAC000FD023686FF010021A6108232377236892
:100CBC00DB6913F4407F31D02046FFF7A4FF0023FB
:100CCC00237715F0010F02D016F0010F2DD115F07E
:100CDC00800F02D016F0800F2FD115F0400F02D0EC
:100CEC0016F0400F31D115F0200F02D016F0200F66
:100CFC0033D170BDFFF786FF2046FFF785FF9CE7D9
:100D0C002046FFF77FFF2046FFF77EFFABE720462C
:100D1C00FFF778FF2046FFF777FFBAE72046FFF78B
:100D2C0071FF2046FFF770FFC9E723686FF00102DF
:100D3C001A612046FFF79CFAC9E723686FF080021E
:100D4C001A61204600F079F8C7E723686FF040027B
:100D5C001A612046FFF759FFC5E723686FF02002A0
:100D6C001A61204600F068F8C3E7000003681B4ACC
:100D7C00904206D0B0F1804F03D0A2F5943290424D
:100D8C0003D123F070034A681343144A904206D0EF
:100D9C00B0F1804F03D0A2F59432904203D123F4EA
:100DAC004073CA68134323F080034A6913430360FA
:100DBC008B68C3620B688362084B98420AD001238C
:100DCC004361036913F0010F03D0036923F001039E
:100DDC00036170470B690363F1E700BF002C01400E
:100DEC0040B310B5044690F83D30F3B1022384F8BB
:100DFC003D30214651F8040BFFF7B8FF012384F86E
:100E0C00463084F83E3084F83F3084F8403084F823
:100E1C00413084F8423084F8433084F8443084F80C
:100E2C00453084F83D30002010BD80F83C30FFF791
:100E3C00B7FEDBE7012070477047704708B500F03C
:100E4C009FF800F087F800F0A9F808BD10B504462B
:100E5C002A4B1B6813B1984700284ED0216C2848A8
:100E6C0000F0E0FA616A274800F0DCFAA16A264833
:100E7C0000F0D8FAE16A254800F0D4FA216B244836
:100E8C0000F0D0FA6168234800F0CCFAA16822483F
:100E9C0000F0C8FAE168214800F0C4FA2169204842
:100EAC0000F0C0FA61691F4800F0BCFAA1691E4845
:100EBC0000F0B8FAE1691D4800F0B4FA216A1C4848
:100ECC0000F0B0FA616B1B4800F0ACFAA16B1A4849
:100EDC0000F0A8FAE16B194800F0A4FA236813F0AB
:100EEC00040F06D000F010FB0146154800F09AFAEA
:100EFC00FEE7144800F096FAFAE710BDA4040020AF
:100F0C00D8180008E8180008F81800080819000894
:100F1C001819000828190008381900084819000881
:100F2C005819000868190008781900088819000871
:100F3C0098190008A8190008B8190008C819000861
:100F4C00D8190008F8190008014B1868704700BF41
:100F5C00B404002008B5094A13680133136000F08B
:100F6C00D3FA036C013B036413B100F065FB08BDBD
:100F7C00C36B036400F0CEFAF7E700BFB4040020A3
:100F8C0008B5FFF7DDF8044A13780133DBB21370B0
:100F9C00FFF7DAF808BD00BFB804002008B5FFF76A
:100FAC00CFF8044A1378013BDBB21370FFF7CCF88F
:100FBC0008BD00BFB80400202DE9F04784B0994665
:100FCC000D9C0E9D15F0400F17D0DFF84CA115F0BD
:100FDC00100F01D025F0010515F0010F10D03026AF
:100FEC0015F0020F11D0002A0CDB15F0040F21D1E3
:100FFC0015F0080F20D1002708E0DFF820A1E6E764
:10100C002026EDE752422D2700E0002792BB30232B
:10101C008DF800304FF0010CA4452EDC22460C9BC1
:10102C009B1A15F0110F38D117B1002B00DD013BC5
:10103C009E4626E02B27E9E72027E7E7384BA3FB62
:10104C00023E4FEADE0E0EEB8E08A2EB480872460B
:10105C001AF808E00CF110036B4403F810EC0CF1D7
:10106C00010C002AD8D0B9F10A0FE7D002F00F0812
:10107C001209EDE74FF0000CF3E76246CFE70130C1
:10108C009E460EF1FF33BEF1000F06DD8842F6D20C
:10109C004FF0200E80F800E0F1E727B1884200D233
:1010AC000770013B013015F0100F02D00CE001303D
:1010BC002B465D1E002B03DD8842F8D20670F6E746
:1010CC002B4601E00130724602F1FF3E624506DD1F
:1010DC008842F7D230220270F4E7013094460CF1CA
:1010EC00FF32BCF1000F0BDD54B18842F5D202F196
:1010FC0010056D4415F8105C0570EEE701301346D1
:10110C005A1E002B04DD8842F8D220230370F5E729
:10111C0004B0BDE8F08700BF1C1B0008301B0008A2
:10112C00CDCCCCCC034600E001331A78002AFBD19D
:10113C00181A70472DE9F04F87B082460491144677
:10114C00059310EB010803D3C34304934FF0FF380E
:10115C00564601E0013601342378002B00F04E8115
:10116C00252B03D04645F5D23370F3E7002501E07B
:10117C0045F0100514F8013F2D2BF9D02B2B08D07E
:10118C00202B09D0232B0AD0302B0BD145F0010595
:10119C00F0E745F00405EDE745F00805EAE745F012
:1011AC002005E7E7A3F13002092A1BD92A2B1BD013
:1011BC004FF0FF3723782E2B21D04FF0FF392278B8
:1011CC00682A43D06C2A41D0002240E007EB870705
:1011DC0014F8013B03EB4707303F2378303B092BD6
:1011EC00F4D9E7E70027F8E70134059B1A1D0592AF
:1011FC001F68002FDEDA7F4245F01005DAE714F89D
:10120C00013FA3F13002092A16D92A2B17D04FF02F
:10121C000009D4E709EB890914F8013B03EB4909F0
:10122C00A9F130092378303B092BF3D9B9F1000F20
:10123C00C5DA4FF00009C2E74FF00009F2E70134BC
:10124C00059B1A1D0592D3F80090EFE70134237823
:10125C00252B00F09080C0F0AF80782B00F2AC8092
:10126C00582BC0F0A980583B202B00F2A580DFE85A
:10127C0003F09BA3A3A3A3A3A3A3A3A3A3119FA323
:10128C00A3A3A39FA3A3A3A3A3886CA3A330A3B2DC
:10129C00A3A3B40015F0100F09D0059B1A1D0592DD
:1012AC001B78464500D23370013609E00136013F08
:1012BC00002FF2DD4645F9D220233370F6E70136D4
:1012CC00013F002F7FF747AF4645F8D220233370FC
:1012DC00F5E7059B1A1D0592D3F800B0BBF1000F82
:1012EC000DD05846FFF71EFFB9F1000F02DD814506
:1012FC0000DA484615F0100F06D0002312E0DFF894
:10130C001CB1EEE701361F467B1EB84204DA464597
:10131C00F8D220223270F5E71F46EEE701360BF1CA
:10132C00010B0133834207DA4645F7D29BF80020C4
:10133C003270F3E701361F467B1EB842BFF60BAF87
:10134C004645F7D220223270F4E7B7F1FF3F0ED0BA
:10135C00059B1A1D05921A680295CDF8049000970A
:10136C00102341463046FFF727FE0646F3E645F0CC
:10137C0001050827ECE7464501D2252333700136D9
:10138C00E9E608236C2A2AD0682A2DD0059A111D6B
:10139C00059112680295CDF80490009741463046AD
:1013AC00FFF70AFE0646D6E645F040051023E9E7AE
:1013BC0045F002050A23E5E7464501D225233370A3
:1013CC00721C237823B1424500D273700236C2E6F8
:1013DC00013C1646BFE60A23D4E71023D2E7059A50
:1013EC00111D05911268D5E7059A111D059111681B
:1013FC008AB215F0020FCDD00AB2CBE7049B1BB119
:10140C00464506D200233370A6EB0A0007B0BDE8B0
:10141C00F08F002308F8013CF6E700BF141A00080F
:10142C00704700000FB410B582B004AB53F8042B16
:10143C000193064C7F212046FFF77CFE2046FFF7E8
:10144C00EFFF02B0BDE8104004B07047BC040020B0
:10145C00E8B110F0FF020AD110F47F4F0BD110F459
:10146C007F0F0ED1030E0A4AD05C19307047084B1F
:10147C00985C01307047C0F30723054AD05C0930F3
:10148C007047C0F30743024AD05C11307047704775
:10149C001C1A000838B5FEF753FE0446144BB3F97A
:1014AC000030C3B9134B1868FFF7D2FF431E124A22
:1014BC0052F83310A1F114021048006890420AD07F
:1014CC000F4D2B700D4B1A600E4B1B783BB1083136
:1014DC001C30FEF73CFE2046FEF736FE38BD0831C8
:1014EC001C30FEF734FE2046FEF72EFEF6E700BF5A
:1014FC004405002048060020480500204005002037
:10150C003C050020B8040020014B1868704700BF50
:10151C004005002010B5FEF713FE134B1B6893F823
:10152C00342002F00F02012A03D159699A699142C1
:10153C0003D1FEF709FE002010BD03F114044A602C
:10154C00596911609C615C6193F83510074A02EB94
:10155C00C10251680C605168996154605A61FEF780
:10156C00F3FDFFF797FFE6E7400500204805002054
:10157C0030B583B00446FEF7E3FD0022002A26DDD9
:10158C00637A23F001036372FEF7DEFDFFF7DCFCE8
:10159C00636A1844A062FEF7D3FD254B0193002229
:1015AC005AB3244A136801331360019B04F11402EB
:1015BC0019684A60196861611A60A361637A43F023
:1015CC0001036372FEF7C0FD002003B030BD931C15
:1015DC0004EBC303191D9D68D3F804C0CCF8045068
:1015EC00D3F804C0C5F800C0996059600132C5E752
:1015FC0002AB03EB820343F8041C02AB03EB820344
:10160C0053F8045CD3000A4901EBC20149688D42CE
:10161C000BD029681433CB1A9B6AA56AAB42E7D06E
:10162C005B1B6FF00045AB42E2D20132B8E700BF62
:10163C00500600204C060020F8B5FFF785FC074645
:10164C00FEF77EFD05461DE0931C06EBC303191D3A
:10165C005F68986878605F680760996059600132CC
:10166C00002AF1DDA368E0689847FFF76DFC074698
:10167C0014F80B3C03F00302032A11D023F00103EE
:10168C0004F80B3C0C4B1C689C4211D0A4F11406C2
:10169C006069381A6FF00043984209D20022DFE7E4
:1016AC0023F0010304F80B3C3046FFF761FFE9E738
:1016BC002846FEF749FDF8BD5006002070B50D4ECA
:1016CC000D4D761BB61006D0002455F8043B0134A2
:1016DC009847A642F9D1094E094D00F0D5F8761B72
:1016EC00B61006D0002455F8043B01349847A642A6
:1016FC00F9D170BD481B0008481B0008501B00089E
:10170C00481B0008830730B548D0541E002A3FD030
:10171C000346CAB201E0013C3AD303F8012B9D0702
:10172C00F9D1032C2DD9CDB245EA05250F2C45EA6C
:10173C00054536D9A4F1100222F00F0C03F1200E4E
:10174C00E6444FEA121C03F1100242E9045542E947
:10175C00025510327245F8D10CF1010214F00C0F45
:10176C0003EB021204F00F0C13D0ACF1040323F0C2
:10177C0003030433134442F8045B9342FBD10CF093
:10178C0003042CB1CAB21C4403F8012B9C42FBD1BC
:10179C0030BD64461346002CF4D1F9E703461446D9
:1017AC00BFE71A46A446E0E7024B13B1024800F02B
:1017BC0005B8704700000000D5170008002301464B
:1017CC001A46184600F01AB838B5084B084D5B1B82
:1017DC009C1007D0043B1D44013C55F80439984734
:1017EC00002CF9D1BDE8384000F054B8541B000867
:1017FC00501B0008704700BF704700BF2DE9F04731
:10180C00DFF87CA00646DAF8000098460F469146B1
:10181C00FFF7F0FF1B4B1B68D3F8484124B36568F6
:10182C001F2D26DC5EB96B1C0235DAF800006360F4
:10183C0044F82570FFF7E0FF0020BDE8F087012396
:10184C0004EB8501C1F88890D4F88821AB401A4389
:10185C00022EC4F88821C1F80881E4D1D4F88C2177
:10186C001343C4F88C31DEE703F5A674C3F8484182
:10187C00D5E7DAF80000FFF7BFFF4FF0FF30DCE7E9
:10188C0038040020441B0008F8B500BFF8BC08BCA5
:10189C009E467047F8B500BFF8BC08BC9E46704722
:1018AC000000000000000000010203040607080904
:1018BC0000000000010203040203040506070809E6
:1018CC000A0B0C0D0E0F1010010200007073723A0F
:1018DC00203078253038780A000000007230303A19
:1018EC00203078253038780A000000007230313A08
:1018FC00203078253038780A000000007230323AF7
:10190C00203078253038780A000000007230333AE5
:10191C00203078253038780A000000007230343AD4
:10192C00203078253038780A000000007230353AC3
:10193C00203078253038780A000000007230363AB2
:10194C00203078253038780A000000007230373AA1
:10195C00203078253038780A000000007230383A90
:10196C00203078253038780A000000007230393A7F
:10197C00203078253038780A000000007231303A77
:10198C00203078253038780A000000007231313A66
:10199C00203078253038780A000000007231323A55
:1019AC00203078253038780A00000000206C723A1C
:1019BC00203078253038780A000000002070633A17
:1019CC00203078253038780A000000006861726495
:1019DC00206661756C74206F6E207468726561642A
:1019EC003A2025730D0A0D0A00000000686172642C
:1019FC00206661756C74206F6E2068616E646C6516
:101A0C00720D0A0D0A000000284E554C4C2900009E
:101A1C0000000100020001000300010002000100AF
:101A2C00040001000200010003000100020001009B
:101A3C00050001000200010003000100020001008A
:101A4C00040001000200010003000100020001007B
:101A5C000600010002000100030001000200010069
:101A6C00040001000200010003000100020001005B
:101A7C00050001000200010003000100020001004A
:101A8C00040001000200010003000100020001003B
:101A9C000700010002000100030001000200010028
:101AAC00040001000200010003000100020001001B
:101ABC00050001000200010003000100020001000A
:101ACC0004000100020001000300010002000100FB
:101ADC0006000100020001000300010002000100E9
:101AEC0004000100020001000300010002000100DB
:101AFC0005000100020001000300010002000100CA
:101B0C0004000100020001000300010002000100BA
:101B1C003031323334353637383941424344454617
:101B2C0000000000303132333435363738396162D9
:0C1B3C00636465660000000010000020DB
:081B4800B51700083101000887
:041B50000D0100087B
:101B540000127A00010000001000000000000000E4
:101B640000000000FC02002064030020CC030020DD
:101B74000000000000000000000000000000000061
:101B84000000000000000000000000000000000051
:101B94000000000000000000000000000000000041
:101BA4000000000000000000000000000000000031
:101BB4000000000000000000000000000000000021
:101BC4000000000000000000000000000000000011
:101BD4000000000000000000000000000000000001
:101BE40000000000000000000000000000000000F1
:101BF40000000000000000000000000000000000E1
:101C040000000000000000000100000000000000CF
:101C14000E33CDAB34126DE6ECDE05000B00000094
:101C240000000000000000000000000000000000B0
:101C340000000000000000000000000000000000A0
:101C44000000000000000000000000000000000090
:101C54000000000000000000000000000000000080
:0C1F8400000000000000000058060020D3
:0400000508000405E6
:00000001FF
